{
  "_format": "hh-sol-artifact-1",
  "contractName": "SavingsAccount",
  "sourceName": "contracts/SavingsAccount.sol",
  "abi": [
    {
      "inputs": [],
      "stateMutability": "nonpayable",
      "type": "constructor"
    },
    {
      "inputs": [],
      "name": "balance",
      "outputs": [
        {
          "internalType": "uint256",
          "name": "",
          "type": "uint256"
        }
      ],
      "stateMutability": "view",
      "type": "function"
    },
    {
      "inputs": [],
      "name": "displayBalance",
      "outputs": [
        {
          "internalType": "uint256",
          "name": "",
          "type": "uint256"
        }
      ],
      "stateMutability": "view",
      "type": "function"
    },
    {
      "inputs": [],
      "name": "owner",
      "outputs": [
        {
          "internalType": "address",
          "name": "",
          "type": "address"
        }
      ],
      "stateMutability": "view",
      "type": "function"
    },
    {
      "inputs": [
        {
          "internalType": "uint256",
          "name": "amount",
          "type": "uint256"
        }
      ],
      "name": "transferToSavings",
      "outputs": [],
      "stateMutability": "nonpayable",
      "type": "function"
    }
  ],
  "bytecode": "0x608060405234801561001057600080fd5b50336000806101000a81548173ffffffffffffffffffffffffffffffffffffffff021916908373ffffffffffffffffffffffffffffffffffffffff16021790555061041c806100606000396000f3fe608060405234801561001057600080fd5b506004361061004c5760003560e01c80633c7d73d8146100515780637929db641461006f5780638da5cb5b1461008b578063b69ef8a8146100a9575b600080fd5b6100596100c7565b60405161006691906101c5565b60405180910390f35b61008960048036038101906100849190610211565b6100d1565b005b610093610182565b6040516100a0919061027f565b60405180910390f35b6100b16101a6565b6040516100be91906101c5565b60405180910390f35b6000600154905090565b60008111610114576040517f08c379a000000000000000000000000000000000000000000000000000000000815260040161010b906102f7565b60405180910390fd5b600154816001546101259190610346565b1015610166576040517f08c379a000000000000000000000000000000000000000000000000000000000815260040161015d906103c6565b60405180910390fd5b80600160008282546101789190610346565b9250508190555050565b60008054906101000a900473ffffffffffffffffffffffffffffffffffffffff1681565b60015481565b6000819050919050565b6101bf816101ac565b82525050565b60006020820190506101da60008301846101b6565b92915050565b600080fd5b6101ee816101ac565b81146101f957600080fd5b50565b60008135905061020b816101e5565b92915050565b600060208284031215610227576102266101e0565b5b6000610235848285016101fc565b91505092915050565b600073ffffffffffffffffffffffffffffffffffffffff82169050919050565b60006102698261023e565b9050919050565b6102798161025e565b82525050565b60006020820190506102946000830184610270565b92915050565b600082825260208201905092915050565b7f416d6f756e74206d7573742062652067726561746572207468616e207a65726f600082015250565b60006102e160208361029a565b91506102ec826102ab565b602082019050919050565b60006020820190508181036000830152610310816102d4565b9050919050565b7f4e487b7100000000000000000000000000000000000000000000000000000000600052601160045260246000fd5b6000610351826101ac565b915061035c836101ac565b925082820190508082111561037457610373610317565b5b92915050565b7f4f766572666c6f77206465746563746564000000000000000000000000000000600082015250565b60006103b060118361029a565b91506103bb8261037a565b602082019050919050565b600060208201905081810360008301526103df816103a3565b905091905056fea26469706673582212208fc65273aa75e645200c18f5d3a8db5b1153f3b893c8d1545f04009d489e0b6564736f6c63430008120033",
  "linkReferences": {},
  "deployedLinkReferences": {}
}